:020000040800F2
:100000000000032001230008850700088707000877
:10001000890700088B0700088D0700080000000012
:10002000000000000000000000000000911E000819
:100030008F07000800000000311F0008951F00080E
:1000400051230008512300085123000851230008C0
:1000500051230008512300085123000851230008B0
:1000600051230008512300085123000851230008A0
:100070005123000851230008512300085123000890
:100080005123000851230008512300085123000880
:100090005123000851230008512300085123000870
:1000A000512300089107000851230008512300083C
:1000B0005123000851230008512300085123000850
:1000C0005123000851230008512300085123000840
:1000D0005123000851230008512300085123000830
:1000E0005123000851230008512300085123000820
:1000F0005123000851230008512300085123000810
:1001000051230008512300085123000851230008FF
:1001100051230008512300085123000851230008EF
:1001200051230008512300085123000851230008DF
:1001300051230008512300085123000851230008CF
:1001400051230008512300085123000851230008BF
:1001500051230008512300085123000851230008AF
:10016000512300085123000851230008512300089F
:10017000512300085123000851230008000000000B
:10018000512300085123000851230008512300087F
:10019000512300085123000851230008512300086F
:0C01A000000000000000000051230008D7
:1001B00010B5054C237833B9044B13B10448AFF3A1
:1001C00000800123237010BD1000002000000000FB
:1001D000AC23000808B5034B1BB103490348AFF338
:1001E000008008BD0000000014000020AC230008BF
:1001F00053B94AB9002908BF00281CBF4FF0FF318E
:100200004FF0FF3000F072B9ADF1080C6DE904CE8B
:1002100000F006F8DDF804E0DDE9022304B07047E1
:100220002DE9F047089E04468846002B4BD18A42B0
:10023000154667D9B2FA82F24AB1C2F1200701FA33
:1002400002F320FA07F7954047EA030894404FEA83
:10025000154E230CB8FBFEF71FFA85FC0EFB178822
:1002600043EA084307FB0CF1994209D9EB1807F15F
:10027000FF3080F01B81994240F21881023F2B44ED
:100280005B1AA4B2B3FBFEF00EFB103344EA034446
:1002900000FB0CFCA44509D92C1900F1FF3380F0B8
:1002A0000781A44540F2048102382C4440EA07400B
:1002B000A4EB0C0400271EB1D4400023C6E9004380
:1002C0003946BDE8F0878B4209D9002E00F0EB805B
:1002D0000027C6E9000138463946BDE8F087B3FA81
:1002E00083F7002F47D18B4202D3824200F2FA807B
:1002F000841A61EB030301209846002EE0D0C6E982
:100300000048DDE702B9FFDEB2FA82F2002A40F0CF
:100310008F80491B4FEA154E1FFA85F80127B1FB64
:10032000FEFC230C0EFB1C1143EA014308FB0CF1FD
:10033000994207D9EB180CF1FF3002D2994200F232
:10034000CD808446591AA3B2B1FBFEF00EFB101407
:1003500043EA044408FB00F8A04507D92C1900F132
:10036000FF3302D2A04500F2B6801846A4EB080481
:1003700040EA0C409FE7C7F1200CBB4022FA0CFE7C
:100380004EEA030E01FA07F420FA0CF521FA0CF3F9
:100390004FEA1E482543B3FBF8F92C0C08FB193330
:1003A0001FFA8EFA44EA034309FB0AF49C4202FA5C
:1003B00007F200FA07F10BD91EEB030309F1FF3036
:1003C00080F087809C4240F28480A9F10209734446
:1003D0001B1BADB2B3FBF8F008FB103345EA034436
:1003E00000FB0AFAA24508D91EEB040400F1FF3312
:1003F0006BD2A24569D90238744440EA0940A0FB97
:100400000289A4EB0A044C45C2464B4654D351D052
:10041000002E69D0B1EB0A0564EB030404FA0CFC6E
:10042000FD40FC404CEA0505C6E90054002747E7BB
:10043000C2F1200320FA03F7954001FA02F021FAF5
:1004400003F34FEA154E3843010CB3FBFEF71FFAD6
:1004500085F80EFB173341EA034107FB08F38B4293
:1004600004FA02F407D9691807F1FF3C2FD28B4236
:100470002DD9023F2944CB1A81B2B3FBFEF00EFB0B
:10048000103341EA034100FB08F38B4207D9691896
:1004900000F1FF3C17D28B4215D902382944C91A02
:1004A00040EA07473BE73746304609E70746E7E6B5
:1004B0001846FBE64145ABD2B8EB020A69EB0E02E7
:1004C00001381346A4E76046E9E7184695E7674612
:1004D000D1E781467CE702382C4447E7ACF1020CB7
:1004E0002B442FE7384608E73746E9E6704700BF58
:1004F00008B54FF40051044800F0EEFA4FF4FA60EA
:1005000000F088FFF5E700BF000C024008B50120AD
:1005100000F080FFFBE70000034B036054330B60E7
:1005200080231360704700BF2C00002070B592B08C
:10053000154C0EAD94E80F0085E80F000021284609
:1005400000F071FF114B186007AD04F110060FCEDB
:100550000FC596E8070085E80700002107A800F00E
:1005600023FF0B4B18606D462C340FCC0FC594E85D
:10057000070085E807000021684600F015FF054BDD
:10058000186012B070BD00BFC4230008D03F002027
:10059000C83F0020CC3F002030B589B00024039430
:1005A00004940594069407940094194B1A6B42F036
:1005B00008021A631A6B02F008020092009A019472
:1005C0001A6B42F001021A631A6B02F001020192E7
:1005D000019A02941A6B42F002021A631B6B03F039
:1005E00002030293029B0B4D22464FF40051284612
:1005F00000F06CFA4FF40053039301230493059425
:10060000069403A9284600F071F909B030BD00BF77
:1006100000380240000C024010B594B03022002196
:1006200008A801F0BBFE00240394049405940694EA
:1006300007940194164B1A6C42F080521A641B6C9A
:1006400003F080530193019B0294124A136823F430
:10065000404343F480431360136803F44043029320
:10066000029B0223089301230B9310230C930E94F7
:1006700008A800F03BFA0F23039304940594069412
:100680000794214603A800F051FC14B010BD00BF30
:10069000003802400070004008B500F0A7F8FFF7EE
:1006A000BBFFFFF779FFFFF741FF00F078FEFEE7A1
:1006B00008B50268034B9A4200D008BD00F0B0F8BC
:1006C000FBE700BF0000014000B583B000220092AC
:1006D0000D4B596C41F480415964596C01F48041CF
:1006E000009100990192196C41F0805119641B6CC2
:1006F00003F080530193019B0F216FF0010000F084
:10070000B3F803B05DF804FB0038024010B588B0C0
:1007100000220146192000F0A7F8192000F0D8F8AF
:1007200000240194134B5A6C42F001025A645B6C32
:1007300003F001030193019B02A903A800F0B8FC98
:1007400000F0A6FC0C4BA3FB00239B0C013B0B48C9
:100750000B4A026040F2E732C26043600461846089
:1007600000F0FCFD10B1012008B010BD034800F0FE
:10077000BEFCF9E70038024083DE1B43D43F002073
:10078000000001407047FEE7FEE7FEE7FEE7704726
:1007900008B5024800F0C0FC08BD00BFD43F0020EF
:1007A0000F49D1F8883043F47003C1F888300D4BFD
:1007B0001A6842F001021A60002098601A6822F05C
:1007C000847222F480321A60074A5A601A6822F44E
:1007D00080221A60D8604FF000638B60704700BFC2
:1007E00000ED00E0003802401030002408B50B4B4B
:1007F0001A6842F400721A601A6842F480621A6041
:100800001A6842F480721A60032000F01BF800207E
:10081000FFF77CFFFFF758FF002008BD003C0240B7
:10082000034A1168034B1B780B441360704700BFE9
:100830001440002004000020014B1868704700BFDE
:1008400014400020074AD36823F4E0631B041B0C08
:10085000000200F4E060184340F0BF6040F4003054
:10086000D060704700ED00E030B4174BDB68C3F395
:100870000223C3F10704042C28BF04241D1D062DE8
:1008800018D9033B4FF0FF3505FA04F421EA0401BF
:10089000994005FA03F322EA0303194300280BDB0E
:1008A0000901C9B200F1604000F5614080F8001311
:1008B00030BC70470023E5E700F00F000901C9B222
:1008C000024B1954F4E700BF00ED00E014ED00E026
:1008D000002807DB00F01F02400901239340024A71
:1008E00042F82030704700BF00E100E000230F2BEA
:1008F00000F2E380F0B482B039E0092200E0002287
:10090000B2403A4302346D4E46F824206C4A1468D3
:10091000EA4302EA04064F6817F4803F01D045EA33
:100920000406674C2660646802EA04064F6817F400
:10093000003F01D045EA0406614C6660A46802EA03
:1009400004064F6817F4801F01D045EA04065C4C8A
:10095000A660E46822404E6816F4001F01D045EA04
:100960000402574CE26001330F2B00F2A3800122F6
:100970009A400C6804EA0205AA42F4D14C68022CA1
:1009800001D0122C10D1DE08083650F826C003F032
:100990000704A7000F24BC402CEA040C0C69BC40DF
:1009A00044EA0C0440F8264004685F000326BE4079
:1009B000F64306EA040C4C6804F00304BC4044EA25
:1009C0000C0404604C6804F1FF3CBCF1010F03D936
:1009D000112C01D0122C10D1846806EA040CCC68CA
:1009E000BC4044EA0C048460446824EA02024C6877
:1009F000C4F300149C4014434460C26816408A68E3
:100A0000BA403243C2604A6812F0805FABD0002225
:100A100001922C4A546C44F480445464526C02F4A5
:100A200080420192019A9C08A61C244A52F8267022
:100A300003F0030296000F22B24027EA0207224A7F
:100A400090423FF45CAF02F58062904222D002F502
:100A50008062904220D002F5806290421ED002F562
:100A6000806290421CD002F5806290421AD002F55A
:100A70008062904218D002F58062904216D002F552
:100A80008062904214D002F5806290423FF435AF0C
:100A90000A2235E7012233E7022231E703222FE75A
:100AA00004222DE705222BE7062229E7072227E764
:100AB000082225E702B0F0BC7047704700380140BB
:100AC000003C0140003802400000024012B9090415
:100AD0008161704781617047436931EA030301D046
:100AE000816170470904816170470000002800F0AF
:100AF000BB8170B582B00446036813F0010F3BD090
:100B0000A74B9B6803F00C03042B2CD0A44B9B68D1
:100B100003F00C03082B21D06368B3F5803F4FD05E
:100B2000B3F5A02F52D09E4B1A6822F480321A607F
:100B30001A6822F480221A606368002B50D0FFF7F5
:100B40007BFE0546964B1B6813F4003F14D1FFF75C
:100B500073FE401B6428F5D903208AE1904B5B6843
:100B600013F4800FD8D08E4B1B6813F4003F03D0D2
:100B70006368002B00F07A81236813F0020F55D0D0
:100B8000874B9B6813F00C0F3ED0854B9B6803F09E
:100B90000C03082B33D0E368002B68D0814B012273
:100BA0001A60FFF749FE05467D4B1B6813F0020FE4
:100BB00054D1FFF741FE401B0228F5D9032058E12C
:100BC000774A136843F480331360B5E7744B1A68AF
:100BD00042F480221A601A6842F480321A60ABE74D
:100BE000FFF72AFE05466E4B1B6813F4003FC3D087
:100BF000FFF722FE401B6428F5D9032039E1684B3A
:100C00005B6813F4800FC6D1654B1B6813F0020FAD
:100C100004D0E368012B01D001202AE1604A136867
:100C200023F0F803216943EAC1031360236813F03A
:100C3000080F40D0636963B35B4B01221A60FFF772
:100C4000FBFD0546564B5B6F13F0020F33D1FFF7E8
:100C5000F3FD401B0228F5D903200AE1504A13682E
:100C600023F0F803216943EAC1031360DEE74D4B2B
:100C700000221A60FFF7E0FD0546494B1B6813F0A0
:100C8000020FD3D0FFF7D8FD401B0228F5D903206F
:100C9000EFE0454B00221A60FFF7CEFD0546404BC2
:100CA0005B6F13F0020F06D0FFF7C6FD401B022852
:100CB000F5D90320DDE0236813F0040F79D0384B19
:100CC0001B6C13F0805F33D100230193344B1A6CFB
:100CD00042F080521A641B6C03F080530193019B15
:100CE0000125324B1B6813F4807F23D0A368012BAE
:100CF00034D0052B38D02A4B1A6F22F001021A6724
:100D00001A6F22F004021A67A368002B36D0FFF78F
:100D100093FD0646224B1B6F13F0020F48D1FFF7DD
:100D20008BFD801B41F288339842F3D90320A0E069
:100D30000025D6E71D4A136843F480731360FFF75C
:100D40007BFD0646194B1B6813F4807FCED1FFF75D
:100D500073FD801B0228F5D903208AE0104A136F27
:100D600043F001031367CFE70D4B1A6F42F0040203
:100D70001A671A6F42F001021A67C5E7FFF75CFDB8
:100D80000646074B1B6F13F0020F11D0FFF754FDFF
:100D9000801B41F288339842F3D9032069E000BFF9
:100DA0000038024000004742800E47420070004079
:100DB000E5B9A369002B5BD0304A926802F00C02BF
:100DC000082A58D0022B17D02D4B00221A60FFF7AB
:100DD00033FD0446294B1B6813F0007F42D0FFF718
:100DE0002BFD001B0228F5D9032042E0234A136C97
:100DF00023F080531364DCE7214B00221A60FFF7D5
:100E00001BFD05461D4B1B6813F0007F06D0FFF746
:100E100013FD401B0228F5D903202AE0E369226A6A
:100E20001343626A43EA8213A26A5208013A43EA10
:100E30000243E26A43EA0263104A5360104B012204
:100E40001A60FFF7F9FC04460C4B1B6813F0007F97
:100E500006D1FFF7F1FC001B0228F5D9032008E0BA
:100E6000002006E0002004E001207047012000E09F
:100E7000002002B070BD0120FBE700BF0038024037
:100E800060004742264B9B6803F00C03042B44D0C0
:100E9000082B01D0234870472DE9F04B204B5A68AE
:100EA00002F03F025B6813F4800F13D01C4B5968AB
:100EB000C1F3881100231C48A1FB0001FFF798F93A
:100EC000174B5B68C3F3014301335B00B0FBF3F0E6
:100ED000BDE8F08B124B5B68C3F388131E460027F6
:100EE0005C010025E41A65EB0705A90141EA94615C
:100EF000A001001B61EB0501CB0043EA5073C40065
:100F0000A01943EB07018B0243EA90538402204669
:100F100019460023FFF76CF9D2E70348704700BF7A
:100F2000003802400024F40040787D01002800F0E1
:100F30009D8070B504464F4B1B6803F00F038B4236
:100F400009D2CBB24B4A1370136803F00F038B42E4
:100F500001D0012070BD236813F0020F17D013F0E9
:100F6000040F04D0444A936843F4E0539360236829
:100F700013F0080F04D0404A936843F46043936031
:100F80003D4A936823F0F003A068034393600D4645
:100F9000236813F0010F32D06368012B21D09A1E11
:100FA000012A25D9344A126812F0020F60D0324962
:100FB0008A6822F0030213438B60FFF73DFC06466C
:100FC0002D4B9B6803F00C036268B3EB820F16D0C5
:100FD000FFF732FC801B41F288339842F0D903209E
:100FE000B8E7254A126812F4003FE0D10120B1E7CA
:100FF000214A126812F0007FD9D10120AAE71D4BC7
:101000001B6803F00F03AB4209D9EAB2194B1A70FF
:101010001B6803F00F03AB4201D001209AE723685D
:1010200013F0040F06D0144A936823F4E053E168E8
:101030000B439360236813F0080F07D00E4A9368A0
:1010400023F46043216943EAC1039360FFF71AFF69
:10105000094B9B68C3F30313084AD35CD840084B81
:1010600018600020FFF752FB002073E70120704753
:1010700001206FE7003C0240003802400C240008C9
:1010800000000020014B1868704700BF00000020DE
:1010900008B5FFF7F7FF044B9B68C3F34233034ADD
:1010A000D35CD84008BD00BF003802401C240008B3
:1010B0000F2303600B4B9A6802F0030242609A68A8
:1010C00002F0F00282609A6802F4E052C2609B680B
:1010D000DB0803F4E0530361034B1B6803F00F03C9
:1010E0000B60704700380240003C024070470268C5
:1010F000D36843F00103D3600268936803F00703E9
:10110000062B03D0136843F00103136000207047DF
:10111000704770477047704710B5044603681A69F6
:1011200012F0020F11D0DA6812F0020F0DD06FF03A
:1011300002021A610123037703689B6913F0030F0E
:1011400070D0FFF7E6FF0023237723681A6912F0B7
:10115000040F12D0DA6812F0040F0ED06FF0040200
:101160001A610223237723689B6913F4407F5FD0C1
:101170002046FFF7CEFF0023237723681A6912F079
:10118000080F12D0DA6812F0080F0ED06FF00802C4
:101190001A61042323772368DB6913F0030F4ED011
:1011A0002046FFF7B6FF0023237723681A6912F061
:1011B000100F12D0DA6812F0100F0ED06FF010027C
:1011C0001A61082323772368DB6913F4407F3DD03D
:1011D0002046FFF79EFF0023237723681A6912F049
:1011E000010F03D0DA6812F0010F36D123681A69B3
:1011F00012F0800F03D0DA6812F0800F34D1236828
:101200001A6912F0400F03D0DA6812F0400F32D1A1
:1012100023681A6912F0200F03D0DA6812F0200F49
:1012200030D110BDFFF774FF2046FFF773FF8AE748
:101230002046FFF76DFF2046FFF76CFF9BE7204637
:10124000FFF766FF2046FFF765FFACE72046FFF794
:101250005FFF2046FFF75EFFBDE76FF001021A61F6
:101260002046FFF725FAC1E76FF080021A61204699
:1012700000F08EF8C3E76FF040021A612046FFF7D6
:101280004AFFC5E76FF020021A61204600F07FF8A0
:10129000C7E700000368304A904212D0B0F1804F97
:1012A0000FD0A2F57C4290420BD002F580629042B2
:1012B00007D002F58062904203D002F57842904256
:1012C00003D123F070034A681343234A90422AD083
:1012D000B0F1804F27D0A2F57C42904223D002F596
:1012E000806290421FD002F5806290421BD002F5CE
:1012F0007842904217D002F57052904213D002F516
:10130000806290420FD002F5806290420BD0A2F52D
:101310009832904207D002F58062904203D002F5E5
:101320008062904203D123F44073CA68134323F0D0
:1013300080034A69134303608B68C3620B6883624E
:10134000054B984203D003F58063984201D10B69A5
:10135000036301234361704700000140A8B110B549
:10136000044690F83D305BB1022384F83D30211DE6
:101370002068FFF78FFF012384F83D30002010BD67
:1013800080F83C30FFF7B2FEEEE70120704770476F
:101390007047842801D0033070470020704708B59B
:1013A00000F034FB002008BD2DE9F04387B004466F
:1013B0000F464569A5B1866996B1D0F80480D0F88A
:1013C0000090B0F90800FFF7E4FF2269029601954A
:1013D00000903B464946404600F0ACFA059013E0C9
:1013E00065682668D4F81080B4F90800FFF7D1FFCB
:1013F00005AB019300903B461FFA88F23146284620
:1014000000F0D1FA012803D1059807B0BDE8F083B8
:101410000020FAE708B5034600B90123184600F09A
:101420002FFC002008BD10B582B082680AB1C368E5
:1014300033B900224168006800F0EAF802B010BD3C
:10144000416800680024009400F09AF8F6E700F183
:10145000080343604FF0FF328260C36003610023E2
:101460000360704700230361704743684B609A68CC
:101470008A609A685160996008610368013303606B
:10148000704730B40D68B5F1FF3F02D000F108029B
:1014900002E0026904E01A4653681C68AC42FAD9BB
:1014A00053684B6099608A6051600861036801333A
:1014B000036030BC7047036942688168916082684C
:1014C000416851605A68824206D0002202611A685F
:1014D000013A1A601868704782685A60F5E70000A0
:1014E00038B540B94FF0500383F31188BFF36F8FC5
:1014F000BFF34F8FFEE704460D4600F0DBFC21688A
:10150000E26B236C03FB021060600020A063A1600B
:10151000013A02FB0313E360FF2384F8443084F8AC
:101520004530A5B923691BB900F0E6FC012038BDA0
:1015300004F1100000F012FC0028F5D0084B4FF029
:1015400080521A60BFF34F8FBFF36F8FECE704F147
:101550001000FFF77CFF04F12400FFF778FFE3E7BA
:1015600004ED00E010B5029B0C4639B11A60D86357
:101570001C6401211846FFF7B3FF10BD1B60F6E79E
:1015800040B94FF0500383F31188BFF36F8FBFF35F
:101590004F8FFEE710B584B0044653B192B189B9BC
:1015A0004FF0500383F31188BFF36F8FBFF34F8F5A
:1015B000FEE74FF0500383F31188BFF36F8FBFF343
:1015C0004F8FFEE74AB941B14FF0500383F31188C2
:1015D000BFF36F8FBFF34F8FFEE748200390039850
:1015E000482808D04FF0500383F31188BFF36F8F62
:1015F000BFF34F8FFEE720461C46012384F8463098
:1016000000949DF81830FFF7ADFF204604B010BDE0
:1016100040B94FF0500383F31188BFF36F8FBFF3CE
:101620004F8FFEE7F0B583B0064611B101FB00F025
:1016300000E0002017460C46483000F0B1FD05469A
:1016400050B1002380F8463000903B4600F148023C
:1016500021463046FFF786FF284603B0F0BD000064
:10166000074B9B6A1B6833B1054B9A6AD268D268F4
:101670005268DA627047024B4FF0FF32DA6270470D
:10168000800200202DE9F04780469946089D099F79
:101690000A9C266B02F18042013A06EB820626F094
:1016A000070600230F2B07D8C85CE21882F8340025
:1016B000CA5C0AB10133F5E7002384F84330062DF4
:1016C00000D90625E56265644FF0000AC4F848A019
:1016D000201DFFF7C7FE04F11800FFF7C3FE2461C9
:1016E000C5F10705A5616462C4F84CA084F850A058
:1016F0004A464146304600F0B1FB206007B13C60ED
:10170000BDE8F08770B5002407E004EB8402930085
:1017100010481844FFF79BFE0134062CF5D90E4CF7
:1017200004F1BC063046FFF792FE04F1D0052846CE
:10173000FFF78DFE04F11400FFF789FE04F1E400C9
:10174000FFF785FE2046FFF782FEA662C4F8F85038
:1017500070BD00BFB00200208002002038B50546F1
:1017600000F0A8FB264BD3F8FC200132C3F8FC2084
:10177000D3F8003173B1224BD3F804318BB9204B2D
:10178000D3F80031DA6AEB6A9A420AD81C4BC3F8E4
:10179000005106E01A4BC3F80051D3F8FC30012B7E
:1017A0002AD0174CD4F808310133C4F80831EB6A59
:1017B00001229A40D4F80C110A43C4F80C2104F118
:1017C000300003EB83039A00291D1044FFF74DFE00
:1017D00000F092FBD4F804316BB1D4F80031DA6A2E
:1017E000EB6A9A4207D2074B4FF080521A60BFF360
:1017F0004F8FBFF36F8F38BDFFF784FFD1E700BF76
:101800008002002004ED00E010B5044690F851304D
:1018100033B9006B00F03EFD204600F03BFD10BDEB
:10182000012B0AD0022BFAD04FF0500383F311881A
:10183000BFF36F8FBFF34F8FFEE700F02BFDEEE796
:1018400038B517E000F036FB0D4CD4F8F030DD6809
:10185000281DFFF730FED4F8FC30013BC4F8FC3003
:10186000D4F81031013BC4F8103100F045FB284694
:10187000FFF7CAFF024BD3F81031002BE2D138BD7D
:101880008002002008B5FFF7DBFF064B1B6B012B26
:10189000F9D9054B4FF080521A60BFF34F8FBFF359
:1018A0006F8FF0E78002002004ED00E070B5044681
:1018B0000E461F4BD3F81451D3F800010430FFF744
:1018C000FAFD60B91A4BD3F80021D16A012202FA5D
:1018D00001F1D3F80C2122EA0102C3F80C21B4F182
:1018E000FF3F12D02C44124BD3F800315C60A5426C
:1018F00014D80F4DA86AD5F800110431FFF7C1FDC7
:10190000EB6AA34212D9EC6210E0002EEAD008483C
:10191000D0F800110431FFF7A8FD07E0044BD3F81D
:10192000F800D3F800110431FFF7ABFD70BD00BF24
:101930008002002070B586B00B9D0C9C45B94FF01D
:10194000500383F31188BFF36F8FBFF34F8FFEE710
:1019500044B94FF0500383F31188BFF36F8FBFF387
:101960004F8FFEE754260496049E542E08D04FF065
:10197000500383F31188BFF36F8FBFF34F8FFEE7E0
:101980002563022584F8515000250395029405AD86
:1019900001950A9D0095FFF775FE2046FFF7DEFED4
:1019A000059806B070BD2DE9F04385B0074688461E
:1019B00015469946900000F0F3FB08B30646542004
:1019C00000F0EEFB0446B8B10663E4B1002384F8EE
:1019D0005130039302940D9B01930C9B00934B4653
:1019E0002A4641463846FFF74DFE2046FFF7B6FE31
:1019F000012005B0BDE8F083304600F04BFCE4E781
:101A00004FF0FF30F5E74FF0FF30F2E710B588B048
:101A100000240594069407AA06A905A8FEF77CFDF4
:101A2000059B0293069B019300942346079A0D4958
:101A30000D48FFF77FFF08B908B010BD4FF0500305
:101A400083F31188BFF36F8FBFF34F8F074B4FF0B6
:101A5000FF32DA620122C3F80421C3F8144100F016
:101A6000CBFAE9E73424000885180008800200203A
:101A7000034AD2F818310133C2F81831704700BF59
:101A8000800200202DE9F041404BD3F81831002BA3
:101A90006CD13E4BD3F814510135C3F81451CDB974
:101AA0009B6A1B6843B14FF0500383F31188BFF367
:101AB0006F8FBFF34F8FFEE7344B9A6AD3F8F8105D
:101AC0009962C3F8F820D3F81C210132C3F81C2115
:101AD000FFF7C6FD2D4BDB6AAB423DD900242B4AF4
:101AE000D2F80031DB6A03EB830399000A44136BDD
:101AF000012B42D9012440E00124244B9B6A1B683E
:101B000063B3224B9B6ADB68DE6873689D422AD30D
:101B100006F104084046FFF7CEFCB36A1BB106F19C
:101B20001800FFF7C8FCF36A01229A40174FD7F854
:101B30000C110A43C7F80C2107F1300003EB8303B3
:101B40009A0041461044FFF790FCF26AD7F8003142
:101B5000DB6A9A42D0D2D0E70024CEE70B4B4FF09D
:101B6000FF32DA62BBE7094AD362B8E7074AD2F824
:101B700020310133C2F820310024044BD3F8243142
:101B800003B101242046BDE8F08100BF800200209F
:101B9000394BD3F8183143B94FF0500383F3118810
:101BA000BFF36F8FBFF34F8FFEE770B500F082F980
:101BB000314BD3F81821013AC3F81821D3F8183162
:101BC000002B54D12C4BD3F8FC3023B9002400F067
:101BD00093F9204670BD0024274B5B692BB3264D3B
:101BE0002B6ADC6804F11800FFF765FC261D3046FF
:101BF000FFF761FCE36A01229A40D5F80C110A4311
:101C0000C5F80C2105F1300003EB83039A0031463F
:101C10001044FFF72AFCE26AD5F80031DB6A9A42E9
:101C2000DAD30122C5F82421D6E70CB1FFF718FD5D
:101C3000114BD3F8204164B1FFF724FF18B10E4BCC
:101C40000122C3F82421013CF6D10B4B0022C3F83A
:101C50002021094BD3F824315BB1084B4FF080525F
:101C60001A60BFF34F8FBFF36F8F0124AFE70024DB
:101C7000ADE70024ABE700BF8002002004ED00E0E8
:101C800010B5B0B104460F4BD3F8183143B14FF043
:101C9000500383F31188BFF36F8FBFF34F8FFEE7BD
:101CA000FFF7E6FE00212046FFF700FEFFF770FF7A
:101CB00038B9054B4FF080521A60BFF34F8FBFF316
:101CC0006F8F10BD8002002004ED00E0224BD3F89E
:101CD000183123B1204B0122C3F8242170471E4A3A
:101CE0000023C2F82431D2F80C31B3FA83F3DBB20B
:101CF000C3F11F0303EB830081000A44126B42B956
:101D00004FF0500383F31188BFF36F8FBFF34F8FF2
:101D1000FEE710B4104A9900CC18A0001044446BA0
:101D200064684463303219448800083002449442A5
:101D30000BD0094903EB83039A000A44536BDB6819
:101D4000C1F800315DF8044B704761680248142205
:101D500002FB03025163ECE78002002038B5C36840
:101D6000DC6844B94FF0500383F31188BFF36F8FE1
:101D7000BFF34F8FFEE704F118052846FFF79BFBE2
:101D8000154BD3F8183103BB251D2846FFF793FBED
:101D9000E36A01219940104AD2F80C010143C2F8CC
:101DA0000C11303203EB8303980029461044FFF7EF
:101DB0005CFBE26A084BD3F80031DB6A9A4209D92E
:101DC0000120054BC3F8240138BD29460348FFF71D
:101DD0004CFBEEE70020F7E7800200209402002091
:101DE00082B0002301930D4B1B68B3F1FF3F08D075
:101DF0004FF0500383F31188BFF36F8FBFF34F8F02
:101E0000FEE74FF0500383F31188BFF36F8FBFF3EA
:101E10004F8F019B002BFCD002B070470C000020BC
:101E200008480068006880F308884FF0000080F3DD
:101E3000148862B661B6BFF34F8FBFF36F8F00DFB8
:101E400000BF000008ED00E0DFF80C00016841F47D
:101E5000700101607047000088ED00E04FF0807372
:101E600040F8043C21F0010140F8081C054B40F803
:101E70000C3C40F8202C6FF0020340F8243C44381E
:101E8000704700BFE11D00080000000000000000D6
:101E9000074B19680868B0E8F04F80F30988BFF372
:101EA0006F8F4FF0000080F311887047AFF3008010
:101EB000800300204FF0500383F31188BFF36F8F2E
:101EC000BFF34F8F0A4A136801331360012B00D010
:101ED0007047084B1B6813F0FF0FF9D04FF0500309
:101EE00083F31188BFF36F8FBFF34F8FFEE700BFFF
:101EF0000C00002004ED00E0094B1B6843B94FF0D3
:101F0000500383F31188BFF36F8FBFF34F8FFEE74A
:101F1000013B034A13600BB983F31188704700BF7C
:101F20000C00002000000000000000000000000085
:101F3000EFF30980BFF36F8F154B1A681EF0100F77
:101F400008BF20ED108A20E9F04F10602DE909004C
:101F50004FF0500080F31188BFF34F8FBFF36F8FA6
:101F6000FFF7B4FE4FF0000080F3118809BC196838
:101F70000868B0E8F04F1EF0100F08BFB0EC108AF0
:101F800080F30988BFF36F8F704700BFAFF3008005
:101F90008003002008B54FF0500383F31188BFF38E
:101FA0006F8FBFF34F8FFFF76DFD18B1034B4FF0ED
:101FB00080521A60002383F3118808BD04ED00E00D
:101FC000084A0023136008490B60084B1B68084946
:101FD000A1FB03139B09013B06490B600723136018
:101FE000704700BF10E000E018E000E000000020B3
:101FF000D34D621014E000E0394B1A68394B9A4215
:102000000DD0374B1A68384B9A4211D14FF050031C
:1020100083F31188BFF36F8FBFF34F8FFEE74FF04D
:10202000500383F31188BFF36F8FBFF34F8FFEE729
:1020300010B582B02D4B1A78D2B20192FF221A70DD
:102040001B78DBB28DF803309DF8033003F05003AA
:10205000274A13700723536009E0254A5368013B60
:1020600053609DF803305B00DBB28DF803309DF8C0
:10207000033013F0800FF0D11D4B5B68032B08D0A9
:102080004FF0500383F31188BFF36F8FBFF34F8F6F
:10209000FEE71B0203F4E063154A5360019BDBB2C9
:1020A000124A1370134B1A6842F470021A601A68CD
:1020B00042F070421A60FFF783FF00240E4B1C6051
:1020C000FFF7C2FE0D4A136843F040431360FFF769
:1020D000A7FEFFF7FBFDFFF783FE204602B010BD11
:1020E00000ED00E071C20F4170C20F4100E400E05A
:1020F000A803002020ED00E00C00002034EF00E0F9
:10210000104A12F0070F1AD0D11D21F00701C1F5B6
:10211000705313440A460C490A6000204860134477
:10212000083B23F007038B6058601860981A5060D2
:102130001360C86008614FF000434B6170474FF473
:102140007053E8E7C8030020B003002010B4134B1D
:102150001A6882421BD359685C18844203D14068D4
:1021600001445960184641684418A24213D10B4CEF
:10217000A468A2420DD05268114441601A681268E6
:102180000260984200D018605DF8044B7047134617
:10219000DEE70460F5E70260F3E700BFB00300206C
:1021A00070B50446FFF764FC394B9B68BBB1384BF4
:1021B0005B691C4262D1ACB1083414F0070F11D036
:1021C00024F00704083404F007035BB14FF0500318
:1021D00083F31188BFF36F8FBFF34F8FFEE7FFF7D5
:1021E0008FFFE4E7002C4BD0294B1B69A34249D356
:1021F000274B1D6801E02B4615466A68A24202D2B1
:102200002A68002AF7D1224A9268AA423CD01E6866
:1022100008362A681A606B681B1B102B10D9281906
:1022200010F0070F08D04FF0500383F31188BFF36D
:102230006F8FBFF34F8FFEE743606C60FFF786FF41
:102240006968134A13695B1A1361D268934201D219
:102250000F4AD3600E4B5B690B436B6000232B600E
:10226000FFF796FC16F0070F10D04FF0500383F3E2
:102270001188BFF36F8FBFF34F8FFEE70026EFE7A4
:102280000026EDE70026EBE70026E9E7304670BDC3
:10229000B003002080B338B50446A0F1080550F81B
:1022A000042C164949690A4208D14FF0500383F3C0
:1022B0001188BFF36F8FBFF34F8FFEE750F8080C04
:1022C00040B14FF0500383F31188BFF36F8FBFF31A
:1022D0004F8FFEE722EA010244F8042CFFF7C8FB07
:1022E00054F8041C054A13690B4413612846FFF790
:1022F0002DFFFFF74DFC38BD704700BFB003002035
:10230000DFF834D0002103E00C4B5B58435004311C
:102310000B480C4B42189A42F6D30B4A02E00023BA
:1023200042F8043B094B9A42F9D3FEF739FA00F020
:1023300011F8FEF7B1F97047000003204C240008A3
:102340000000002010000020100000201840002095
:10235000FEE7000070B50D4E0D4CA41BA410002527
:10236000A54209D10B4E0C4C00F020F8A41BA41080
:102370000025A54205D170BD56F825309847013596
:10238000EEE756F8253098470135F2E74424000877
:10239000442400084424000848240008024403465A
:1023A000934200D1704703F8011BF9E7F8B500BF6D
:1023B000F8BC08BC9E467047F8B500BFF8BC08BC26
:0423C0009E4670477E
:1023C4000100000001000000000000000000000007
:1023D4002C240008F10400080000000000000000A4
:1023E4008000000000000000000000002424000819
:1023F4000D0500080000000000000000800000003F
:1024040000000000000000000000000000000000C8
:102414000102030406070809000000000102030486
:102424006C65644F464600006C65644F4E000000C6
:0824340049444C450000000082
:08243C00E4DDFF7F0100000058
:04244400D5010008B6
:04244800B1010008D6
:10244C000024F4000100000010000000AAAAAAAAAF
:0400000508002301CB
:00000001FF
